:020000040800F2
:10000000E004002045010008F1140008F314000882
:10001000F7140008FB140008FF140008000000009B
:1000200000000000000000000000000003150008B0
:100030000515000800000000071500080915000854
:100040005F0100085F0100085F0100085F01000810
:100050005F0100085F0100085F0100085F01000800
:100060005F0100085F0100085F0100085F010008F0
:100070005F0100085F0100085F0100085F010008E0
:100080005F0100085F0100085F0100085F010008D0
:100090005F0100085F0100085F0100085F010008C0
:1000A0005F0100085F0100085F0100085F010008B0
:1000B0005F0100085F0100085F0100085F010008A0
:1000C0005F0100085F0100085F0100086915000872
:1000D000111500085F0100085F0100085F010008BA
:1000E0005F0100085F0100085F0100085F01000870
:1000F0005F0100085F0100085F0100085F01000860
:100100005F0100085F0100085F0100085F0100084F
:100110005F0100085F0100085F0100085F0100083F
:100120005F0100085F0100085F0100085F0100082F
:10013000DFF80CD001F0C4FE004800474713000868
:10014000E00400200648804706480047FEE7FEE737
:10015000FEE7FEE7FEE7FEE7FEE7FEE7FEE7FEE777
:1001600047020008310100080CB500200190009002
:100170006C48006840F480306A49086000BF6948F4
:10018000006800F4003000900198401C0190009835
:1001900018B90198B0F5A06FF1D16248006800F479
:1001A000003010B10120009001E000200090009884
:1001B000012843D15C48006840F010005A490860AB
:1001C0000846006820F0030008600846006840F018
:1001D0000200086053484068524948600846406839
:1001E00048600846406840F48060486008464068BF
:1001F00020F47C1048600846406840F4E8104860ED
:100200000846006840F08070086000BF45480068FC
:1002100000F000700028F9D04248406820F0030048
:10022000404948600846406840F00200486000BF0E
:100230003C48406800F00C000828F9D10CBD10B50E
:10024000FFF792FF10BD10B53648006840F001007E
:1002500034490860084640683449084031494860DC
:1002600008460068324908402E4908600846006880
:1002700020F4802008600846406820F4FE004860B2
:100280004FF41F008860FFF7DAFF4FF00060294944
:10029000086010BD10B5002100200022214B5B68D2
:1002A00003F00C0121B1042906D0082928D107E068
:1002B000214B224C236027E01F4B204C236023E07E
:1002C000184B5B6803F47010164B5B6803F48032C4
:1002D000022303EB904022B9194B4343174C236090
:1002E0000DE0104B5B6803F4003323B1144B434320
:1002F000124C236003E0104B4343104C236003E097
:100300000D4B0E4C236000BF00BF064B5B68C3F370
:1003100003130C4CE15C094B1B68CB40074C23607A
:1003200010BD000000100240002002400000FFF855
:10033000FFFFF6FE08ED00E000127A00000000204A
:1003400000093D000400002031490143314A116099
:10035000704770B5002100230F22C47804B32D4CE0
:10036000246804F4E064C4F5E064210AC1F10403E4
:10037000CA40447804FA03F1847814402143090107
:10038000254C0678A155047804F01F050124AC40E3
:1003900005786D11AD0005F1E025C5F8004109E0D3
:1003A000047804F01F050124AC401C4D067876113A
:1003B00045F8264070BD1A4A0A400243154B1B1FE0
:1003C0001A60704739B1134A121D12680243114B6B
:1003D0001B1D1A6006E00F4A121D126882430D4B66
:1003E0001B1D1A607047042808D14FF0E0210969ED
:1003F00041F004014FF0E022116107E04FF0E021ED
:10040000096921F004014FF0E022116170470000FA
:100410000000FA050CED00E000E400E080E100E0FF
:1004200080FFFF1F10B50446CC48844208D101214B
:10043000042000F02DFB0021042000F029FB46E001
:10044000C748844208D10121082000F021FB002187
:10045000082000F01DFB3AE0C248844208D1012187
:10046000102000F015FB0021102000F011FB2EE001
:10047000BD48844208D10121202000F009FB002161
:10048000202000F005FB22E0B848844208D1012179
:10049000402000F0FDFA0021402000F0F9FA16E0BB
:1004A000B348844208D10121802000F0F1FA0021F4
:1004B000802000F0EDFA0AE0AE48844207D1012125
:1004C000801500F0E5FA0021A01500F0E1FA10BD5A
:1004D00010B50121084600F0DBFA0021012000F0F0
:1004E000D7FA10BD2DE9F041024600250026002074
:1004F00000230024002791F803C00CF00F0591F8A9
:1005000003C00CF0100CBCF1000F03D091F802C036
:100510004CEA050591F800C0BCF1000F31D0146819
:1005200000202BE04FF0010C0CFA00F3B1F800C0F2
:100530000CEA03069E4220D183004FF00F0C0CFA08
:1005400003F7BC4305FA03FC4CEA040491F803C02A
:10055000BCF1280F06D14FF0010C0CFA00FCC2F8D8
:1005600014C00AE091F803C0BCF1480F05D14FF068
:10057000010C0CFA00FCC2F810C0401C0828D1D3B2
:100580001460B1F800C0BCF1FF0F34DD54680020E6
:100590002EE000F1080C4FF0010808FA0CF3B1F856
:1005A00000C00CEA03069E4221D183004FF00F0CDD
:1005B0000CFA03F7BC4305FA03FC4CEA040491F877
:1005C00003C0BCF1280F05D100F1080C08FA0CF8A3
:1005D000C2F8148091F803C0BCF1480F07D100F1B4
:1005E000080C4FF0010808FA0CF8C2F81080401C03
:1005F0000828CED35460BDE8F0814FF6FF7101802A
:10060000022181700421C170704702460020936866
:100610000B400BB1012000E00020704701468868C4
:1006200080B2704702460020D3680B400BB1012016
:1006300000E0002070470146C86880B27047016141
:100640007047416170470AB1016100E04161704744
:10065000C16070474FF480320A43826181618261D8
:1006600082698269704702460020434B18684FF642
:100670008073184040EA021008433F4B18607047EF
:100680003E49C8617047F0B50A46002300240021A6
:10069000002500F00046B6F1004F02D1364EF16958
:1006A00001E0354E7168C0F3034583B200F4401693
:1006B000B6F5401F08D121F070612F4E766826F004
:1006C00070662D4F7E6012E000F48016B6F5801F34
:1006D00006D1032606FA05F4A14341F0706106E055
:1006E000460D360103FA06F6B14341F0706122B1BE
:1006F000460D360103FA06F6314300F00046B6F126
:10070000004F02D11C4EF16101E01B4E7160F0BD43
:1007100030B500228B071C0F0F2303FA04F2164B8F
:1007200008338C1053F824309343134C08348D1045
:1007300044F8253023468C1053F824308C07240FBE
:1007400000FA04F423430C4C08348D1044F825308F
:1007500030BD0A49DC3108607047000000080140E4
:10076000000C01400010014000140140001801403D
:10077000001C014000200140000001400000204218
:10078000DF48006840F00100DD4908600846406825
:10079000DC490840DA49486008460068DA49084000
:1007A000D74908600846006820F4802008600846A1
:1007B000406820F4FE0048604FF41F0088607047D6
:1007C000CF49096821F48031CD4A1160114609688A
:1007D00021F480211160B0F5803F03D0B0F5802F67
:1007E0000ED106E0C649096841F48031C44A11605F
:1007F00007E0C349096841F4A021C14A116000E043
:1008000000BF00BF704710B5014600220023002042
:100810004A11012A02D1BA4C236806E0022A02D109
:10082000B74C236A01E0B64C636A01F01F02012451
:1008300094401C400CB1012000E0002010BD38B5F0
:10084000002000900024002500BF3120FFF7DBFFCF
:1008500005460098401C00900098B0F5A06F01D0AC
:10086000002DF2D03120FFF7CEFF08B1012400E0C7
:100870000024204638BD01460020A14A106820F01F
:10088000F80040EAC10010607047A0490860704756
:10089000024600209A4B586820F47C1042EA01037B
:1008A0001843974B5860704798490866704701464F
:1008B0000020934A506820F00300084350607047BE
:1008C0008F48406800F00C007047014600208C4AB9
:1008D000506820F0F0000843506070470146002047
:1008E000874A506820F4E060084350607047014632
:1008F0000020834A506820F4605040EAC1005060F4
:10090000704729B17E4A527A02437D4B5A7204E005
:100910007B4A527A82437A4B5A7270477B49D8316C
:100920000860704701460020754A506820F4404036
:100930000843506070470021714A20321170704A9C
:1009400082F82010012802D004280AD104E00121F5
:100950006B4A2032117005E00521694A203211707E
:1009600000E000BF00BF70476949086070476449F4
:10097000096A0143624A1162704765494439086057
:10098000704730B500210022002400235C4D6D68C3
:1009900005F00C0121B1042905D0082923D105E077
:1009A0005C4D056022E05B4D05601FE0544D6D68B5
:1009B00005F47012524D6D6805F48034022505EB84
:1009C00092421CB9544D554305600BE04C4D6D6887
:1009D00005F400351DB1504D5543056002E04D4D05
:1009E0005543056002E04B4D056000BF00BF444D1C
:1009F0006D6805F0F0010909484D6B5C0568DD4044
:100A000045603F4D6D6805F4E061090A434D6B5C3C
:100A10004568DD4085603A4D6D6805F46051C90A4E
:100A20003E4D6B5C4568DD40C560354D6D6805F435
:100A30004041890B3A4D6B5CC568B5FBF3F5056128
:100A400030BD29B12E4A526902432D4B5A6104E050
:100A50002B4A526982432A4B5A61704729B1284A6E
:100A600092690243264B9A6104E0254A92698243C7
:100A7000234B9A61704729B1214AD2690243204B26
:100A8000DA6104E01E4AD26982431D4BDA61704785
:100A900029B11B4AD2680243194BDA6004E0184AB4
:100AA000D2688243164BDA60704729B1144A126942
:100AB0000243134B1A6104E0114A12698243104B3E
:100AC0001A61704712494039086070470F49C8647D
:100AD00070470B49C87170470948406A40F0807000
:100AE00007494862704701460020054A92680A405B
:100AF0000AB1012000E00020704701498872704768
:100B0000001002400000FFF8FFFFF6FE0000424226
:100B10008004424200127A0000093D0014000020C7
:100B20002400002010B50446BE48844208D10121AB
:100B30008014FFF7ADFF0021A014FFF7A9FF16E016
:100B4000B948844208D101210014FFF7AEFF00210B
:100B50002014FFF7AAFF0AE0B448844207D101211C
:100B6000C013FFF7A2FF0021E013FFF79EFF10BDA7
:100B700010B50022028802F441520B884C882343AE
:100B80008C882343CC8823430C8923434C892343FB
:100B90008C892343CC8923431A430280838B4FF2F1
:100BA000FF74234083830B8A038210BD2DE9F04F2D
:100BB00085B005460C464FF0000902274FF00008AB
:100BC0004FF0010B0026B246A88B4FF240010840BF
:100BD000A88302202884B5F81C90A068022801D1BF
:100BE00000BF38E0A08810B94FF0010B01E04FF0D2
:100BF000020B8D48854200D100E000BF6846FFF738
:100C0000C0FEDDF800A0E088B0F5007F0AD14FEA11
:100C10001A2000EB80004000A168B0FBF1F0401DFD
:100C200086B20BE04FEA4B10BAFBF0F000EB80000D
:100C30004000A168B0FBF1F0401D86B20A20B6FB6F
:100C4000F0F606F00108A6EB0800C0F34F074FF6D8
:100C5000FF7000EA0828022F01DBFF2F02DD0227C8
:100C60004FF00008E08840EA080038432884A08854
:100C7000A1890843618808432188084340F4006043
:100C800040EA0909A5F81C9005B0BDE8F08F0021E5
:100C9000018041808180C180018141818181C18148
:100CA0000721018270470021018041808180C1803D
:100CB0000221816000218181704721B1028842F0C8
:100CC0004002028004E002884FF6BF731A4002809F
:100CD000704721B1828B42F48062828304E0828B70
:100CE0004FF6FF331A408283704730B5002400234B
:100CF0000C110125A540ABB21AB185881D43858032
:100D000002E085889D43858030BD1AB183880B43FE
:100D1000838002E083888B438380704781817047A2
:100D20000146888970474FF6FF62914204D00288DD
:100D300042F48072028004E002884FF6FF631A409A
:100D40000280704721B1828842F00402828004E070
:100D500082884FF6FB731A408280704702884FF2F8
:100D6000FF731A40028002880A430280704701889C
:100D700041F480510180704721B1028842F4005251
:100D8000028004E002884DF6FF731A40028070472B
:100D900002460020012901D0108B00E0908A7047A4
:100DA0000146088A7047B1F5804F04D1028842F4A9
:100DB0008042028004E002884BF6FF731A400280F2
:100DC00070470246002013890B400BB1012000E060
:100DD00000207047CA4302817047F0B502460020E8
:100DE00000240023002501F00F070126BE40B4B205
:100DF0000B1101269E40B3B2968806EA03051689B8
:100E0000264016B10DB1012000E00020F0BD10B564
:100E1000002201F00F040123A3409AB2D3430381BF
:100E200010BD00000030014000380040003C004090
:100E300010B50446FB48844209D101218803FFF71D
:100E400027FE00214FF48040FFF722FE32E0F648F3
:100E5000844209D101214804FFF727FE00214FF405
:100E60000030FFF722FE25E0F048844209D101213D
:100E70008804FFF71AFE00214FF48020FFF715FECB
:100E800018E0EB48844209D10121C804FFF70DFEA8
:100E900000214FF40020FFF708FE0BE0E5488442F4
:100EA00008D101210805FFF700FE00214FF4801052
:100EB000FFF7FBFD10BD2DE9F04786B005460E4655
:100EC0000024A24600BFA1460027B08900B100BFA0
:100ED0002F462C8A4CF6FF700440F08804432C8285
:100EE000AC894EF6F3100440B0883189084371890B
:100EF00008430443AC81AC8A4FF6FF400440B089FC
:100F00000443AC8201A8FFF73CFDC648874202D1EA
:100F1000DDF810A001E0DDF80CA0A88900F4004085
:100F200040B10AEBCA0000EB0A1031684900B0FB7F
:100F3000F1F807E00AEBCA0000EB0A1031688900FB
:100F4000B0FBF1F86420B8FBF0F004012009642143
:100F500001FB1089A88900F4004040B1322000EB69
:100F6000C900B0FBF1F000F00700044308E03220B4
:100F700000EB09106421B0FBF1F000F00F00044316
:100F80002C8106B0BDE8F0874FF4165101600021B6
:100F90008180C18001810C214181002181817047C4
:100FA00010B502460020108A4FF2FF0318400B884C
:100FB0004C8823438C882343CC88234318431082D6
:100FC00010BD0021018041808180C180704721B126
:100FD000828942F40052828104E082894DF6FF73D7
:100FE0001A4082817047F0B5034600240026002590
:100FF000002040F66A17B94200D100BF1846C1F37D
:10100000421401F01F06012707FA06F5012C01D151
:101010000C3004E0022C01D1103000E014301AB181
:1010200007682F43076002E00768AF430760F0BD21
:101030001AB1838A0B43838202E0838A8B438382C3
:101040007047028A4FF6F0731A400282028A0A43FE
:101050000282704782894FF2FF731A40828182892F
:101060000A438281704721B1828942F00202828163
:1010700004E082894FF6FD731A4082817047028A2C
:101080004FF6DF731A400282028A0A4302827047D7
:1010900021B1028A42F48042028204E0028A4BF6C5
:1010A000FF731A4002827047C1F3080282807047C2
:1010B00001468888C0F308007047818941F001012A
:1010C00081817047028BD2B20283028B42EA0122F5
:1010D00002837047028B02F47F420283028B0A4331
:1010E0000283704721B1828A42F02002828204E0AA
:1010F000828A4FF6DF731A408282704721B1828A5A
:1011000042F01002828204E0828A4FF6EF731A40A6
:101110008282704721B1828A42F00802828204E012
:10112000828A4FF6F7731A408282704721B1828912
:1011300042F40042828103E08289C2F30E0282817E
:10114000704721B1828A42F40062828204E0828A7E
:101150004FF2FF731A4082827047828A4FF6FB7308
:101160001A408282828A0A438282704721B1828A2F
:1011700042F00202828204E0828A4FF6FD731A4036
:101180008282704702460020B1F5007F00D100BF87
:1011900013880B400BB1012000E00020704701F4E0
:1011A0000072B2F5007F00D100BFCA4302807047D1
:1011B00070B50246002400230025002040F66A1680
:1011C000B14200D100BFC1F3421501F01F03012657
:1011D00006FA03F3012D02D19689334006E0022D71
:1011E00002D1168A334001E0968A33400C12012660
:1011F00006FA04F41688344013B10CB1012000E063
:10120000002070BD10B50022002340F66A14A142F0
:1012100000D100BF0A1201249440A3B2DC43048031
:1012200010BD00000038014000440040004800406C
:10123000004C00400050004010B54FF4C060FFF774
:1012400083F82320884908700020487088700120A6
:10125000C8700846FFF77DF82420834908700020F5
:101260004870012088700846FFF773F810BD10B56C
:1012700001218803FFF7FFFB01210820FFF7EEFBA8
:101280004FF4804079490880032088701820C87086
:101290007748FFF727F94FF420407449088003206E
:1012A00088700420C8707248FFF71CF94FF4805012
:1012B0006E490880032088701020C8706C48FFF7C2
:1012C00011F900206B49088048808880C880088117
:1012D0004FF400704881082088810020C88166484A
:1012E000FFF746FC002260216348FFF7FEFC012166
:1012F0006148FFF7E2FC10BD10B500F08EF95FA069
:1013000000F010FE01211D20FFF7A8FB4FF4007034
:1013100056490880032088701020C8705448FFF791
:10132000E1F84FF4005051490880032088704820AC
:10133000C8705648FFF7D6F800224FF400714C48A9
:10134000FFF781F910BD8AB000F092FB00F065F95B
:101350004FA000F0E7FDFFF7CFFF00F02FFA0122CA
:1013600060214F48FFF7C1FCFFF781FFFFF764FFE3
:101370004FF47A7000F089FB002503E0232001A9D7
:1013800048556D1C212DF9DB00F0EEFC01242146AF
:10139000102000F0F0FC6946102000F027FD2246E6
:1013A00040A0009900F0BEFD1BE04A4800F06DFB34
:1013B00049480078012814D10020474908700022CC
:1013C00060213748FFF791FC002260212A48FFF78F
:1013D0008CFC012251022648FFF735F93FA000F0AE
:1013E000A1FDE2E710B5012141F20400FFF736FB51
:1013F000A0201E490880032088701820C8703B4830
:10140000FFF770F8402019490880032088700420F5
:10141000C8703648FFF766F810201449088003208A
:1014200088701020C8703148FFF75CF8002011491F
:1014300008804FF48270488000208880C880012096
:10144000088140024881102088818020C88114488A
:10145000FFF78EFB002260211148FFF746FC0121B7
:101460000F48FFF72AFC10BD2C00002028000020A8
:10147000000C01406800002000380040746573745F
:101480002074686F69206D61000000000010014049
:10149000746573742074686F69206D612E0000009C
:1014A00000300140494D504C494349545F50415927
:1014B0004C4F41445F4C454E474854203D202564E5
:1014C000202873686F756C64206265202564290A82
:1014D00000000000400D03005500002064612074EE
:1014E000727579656E20786F6E67000000080140A4
:1014F000704700BFFEE700BFFEE700BFFEE700BF8A
:10150000FEE770477047704710B500F0D0FA10BD85
:1015100030B589B060212948FFF75FFCF0B1242283
:101520002749684600F088FC2448FFF7F9FB054688
:10153000294624A000F0F6FC00BF02211F48FFF757
:1015400040FC0028F9D0002405E01DF804101B48D9
:10155000FFF7E4FB641C212CF7DB00BF6021174878
:10156000FFF738FC09B030BD10B560211848FFF70F
:1015700034FCF0B11648FFF7D3FB0446214615A012
:1015800000F0D0FC1848007801280CD117480078EA
:10159000401C164908701448C07F202808D101203B
:1015A0001349087004E000201049087010490870C1
:1015B00000BF60210648FFF70DFC10BD0038004059
:1015C000242200080A446174613A20257800000052
:1015D000003001400A53504931204E68616E3A2074
:1015E0002564202D000000007A0000205200002019
:1015F0005500002008B54FF4A060FEF7A5FE252099
:101600008DF8000001208DF801008DF802008DF8A2
:1016100003006846FEF79DFE08BD00B585B00121B8
:101620000420FFF71BFA01218803FFF717FA4FF494
:101630000070ADF8100018208DF8130003208DF80D
:10164000120004A95248FEF74DFF4FF48060ADF838
:10165000100004208DF8130004A94D48FEF742FF46
:101660004FF4E13000900020ADF80400ADF8060022
:10167000ADF80800ADF80C000C20ADF80A00694682
:101680004448FFF718FCFFF7B5FF012240F225514F
:101690004048FFF7A8FC01213E48FFF798FC05B041
:1016A00000BD70B504460D4629462046FFF7FCFCF8
:1016B00000BF80212046FFF765FD0028F9D070BDEE
:1016C0002DE9F04107460D461646002405E0295D48
:1016D0003846FFF7E6FF601CC4B2B442F7DB00BF38
:1016E00040213846FFF74EFD0028F9D0BDE8F081D3
:1016F00070B506460C46002500BF615D3046FFF719
:10170000D0FF6D1C605D0028F7D100BF402130463E
:10171000FFF738FD0028F9D070BD2DE9F0410546EE
:101720000C46260AE7B231462846FFF7BDFC00BF4B
:1017300080212846FFF726FD0028F9D039462846A3
:10174000FFF7B2FC00BF80212846FFF71BFD0028F1
:10175000F9D0BDE8F08170B504460D46E1B20D4800
:10176000FFF7A2FC00BF80210A48FFF70BFD00280D
:10177000F9D0204670BD10B5044600BF20210548B1
:10178000FFF700FD0028F9D00248FFF791FC10BDDB
:10179000000801400038014010B54FF480719948AD
:1017A000FEF74DFF0A2000F070F94FF48071954864
:1017B000FEF747FF0A2000F068F910BD00B587B0BA
:1017C000FFF7EAFF01210803FFF748F90121042090
:1017D000FFF744F91020ADF804008DF8070003204E
:1017E0008DF8060001A98748FEF77CFE4FF4807053
:1017F000ADF8040010208DF8070003208DF80600D6
:1018000001A98048FEF76EFE2020ADF804001820E4
:101810008DF8070003208DF8060001A97948FEF72E
:1018200061FE4020ADF8040004208DF8070001A9F6
:101830007448FEF757FE8020ADF8040018208DF89C
:10184000070003208DF8060001A96E48FEF74AFE46
:1018500010216C48FEF7F3FE0020ADF808004FF4AD
:101860008270ADF80A000020ADF80C00ADF80E0053
:10187000ADF810004FF40070ADF812000820ADF87C
:1018800014000020ADF816000720ADF8180002A9DA
:101890005D48FFF76DF901215B48FFF70EFA07B0CD
:1018A00000BD10B50446214658A000F03BFB0020C7
:1018B00010BD10B504464FF48050594908600AE045
:1018C00057490868411E564A116020B90020FFF7A9
:1018D000E8FFC0B210BD02214B48FFF772FA0028A2
:1018E000EED021464848FFF719FA4FF480504C4992
:1018F00008604548FFF714FAC0B2EBE710B5FF20C7
:10190000FFF7D7FF10BD70B504460D4610213D48C6
:10191000FEF797FE012000F0B8F804F07F0141F0D7
:101920008000FFF7C6FF2846FFF7C3FF012000F045
:10193000ACF810213348FEF782FE002070BD70B570
:1019400004460D4610212F48FEF77BFE012000F0D3
:101950009CF804F07F00FFF7ACFF0020FFF7A9FF21
:101960002870012000F091F810212648FEF767FE4C
:10197000002070BD2DE9F04105460E4617460024B3
:1019800010212048FEF75DFE012000F07EF805F0F2
:101990007F0141F08000FFF78CFF00BF03E0305D66
:1019A000FFF787FF641CBC42F9DB012000F06DF8F3
:1019B00010211448FEF743FE0020BDE8F0812DE918
:1019C000F04105460E46174610210E48FEF739FE37
:1019D000012000F05AF805F07F00FFF76AFF0024AD
:1019E00004E00020FFF765FF3055641CBC42F8DBC3
:1019F000012000F04AF810210248FEF720FE0020E6
:101A0000BDE8F081000801400030014053504920FA
:101A10006572726F72436F6465203D20256400001B
:101A20005800002030B50146B1F1807F01D301207C
:101A300030BD21F07F40401E4FF0E0225061501732
:101A40000F22002807DA13071D0E3E4B00F00F048B
:101A5000241F1D5503E013071C0E3B4B1C5400BFF5
:101A600000204FF0E0229061072010610020DFE7A6
:101A700010B5364800683649B0FBF1F42046FFF750
:101A8000D1FF08B100BFFEE710BD01B53149009894
:101A900008604FF0E020006940F001004FF0E021C5
:101AA000086100BF2B4800680028FBD108BD294809
:101AB000006820B127480068401E2649086070472A
:101AC00031B5224800682449B0FBF1F52846FFF7FC
:101AD000A9FF002408E000BF4FF0E020006900F4F7
:101AE00080300028F8D0641C00988442F3D34FF073
:101AF000E020006920F001004FF0E021086138BDCE
:101B000031B5124800684FF47A71B0FBF1F5284600
:101B1000FFF788FF002408E000BF4FF0E0200069D5
:101B200000F480300028F8D0641C00988442F3D37D
:101B30004FF0E020006920F001004FF0E021086143
:101B400038BD000018ED00E000E400E000000020D7
:101B5000A08601005C00002040420F0010B5044642
:101B600004F00300B2490860084601780020FFF73E
:101B7000CAFE002010BD10B580210020FFF7C3FE73
:101B80000020AB49086010BD0FB42DE9F8430746AB
:101B9000884691460E9C002000909DF83000082851
:101BA00008D19DF82E0028B9E1B29DF82D00FFF76D
:101BB000AAFE57E09DF82E009DF830100844082832
:101BC00028DC9DF82D006946FFF7B9FE9DF830101E
:101BD00001208840401E9DF82E108840C0B28DF82C
:101BE00001009DF82E0004FA00F0C0B28DF802004A
:101BF0009DF800009DF8011088439DF802201140D7
:101C000008438DF803009DF803109DF82D00FFF7A1
:101C10007AFE27E09DF82E00F0B99DF830000028EC
:101C20001ADD9DF83000202816DC9DF83010C81D04
:101C3000C11700EB5171CE10002504E0E0B20DF8A1
:101C4000050024126D1CB542F8DBB2B29DF82D00E0
:101C50006946FFF78FFE05E04FF0FF30BDE8F8035F
:101C60005DF814FB0020F9E70FB42DE9F84F814629
:101C70008A469346109C00200090E84600279DF875
:101C800036009DF83810084408282FDC9DF83500F0
:101C90006946FFF754FE9DF83800C0F108009DF832
:101CA0003610411A9DF800008840C0B28DF801003E
:101CB0009DF8370001280CD198F901009DF83810E3
:101CC000C1F10801084188F8020098F9020020607B
:101CD00048E09DF801009DF83810C1F10801084165
:101CE0008DF802009DF8020020603BE09DF8360070
:101CF00078BB9DF8380000282EDD9DF8380020289C
:101D00002ADC9DF83810C81DC11700EB5171CE10A8
:101D100032469DF835006946FFF751FE0027751ED3
:101D200004E01DF8050000EB07276D1E002DF8DA12
:101D30009DF8370001280DD19DF83800C0F1200032
:101D400087409DF83800C0F1200047FA00F020607D
:101D500008E001E0276005E04FF0FF30BDE8F80F34
:101D60005DF814FB0020F9E710B500210846FFF7E5
:101D7000CAFD002010BD30B587B004460D46B4F54D
:101D8000A37F03DB4FF0FF3007B030BD24B9E8B2CA
:101D9000FFF7E4FE0020F7E7012C04D105F0010075
:101DA00008B10020F0E704EB4400224901EB800277
:101DB00007CA04AB07C39DF81500012801D1801E96
:101DC000E2E79DF91000401C18B19DF81000FFF7E4
:101DD000C5FE0295DDE90501CDE9000100221146AD
:101DE0001046049BFFF7D0FE0020CDE730B587B04A
:101DF00004460D4604EB44000E4901EB800207CA7D
:101E000004AB07C39DF91000401C18B19DF81000E9
:101E1000FFF7A4FE0295DDE90501CDE900010022EE
:101E200011461046049BFFF71FFF002007B030BD8E
:101E3000600000204822000840EA01039B0703D00D
:101E400009E008C9121F08C0042AFAD203E011F8F9
:101E5000013B00F8013B521EF9D270472DE9F05FBB
:101E60000546002092469B46884606468146402409
:101E70001BE0284641464746224600F042F85346BA
:101E80005A46C01A914110D311461846224600F016
:101E900029F82D1A67EB01084F4622460120002140
:101EA00000F020F817EB00094E41201EA4F10104B8
:101EB000DFDC484631462A464346BDE8F09F000035
:101EC000064C074D06E0E06840F0010394E8070087
:101ED00098471034AC42F6D3FEF72EF99031000843
:101EE000B0310008202A04DB203A00FA02F1002079
:101EF00070479140C2F1200320FA03F31943904048
:101F00007047202A04DB203A21FA02F000217047B2
:101F100021FA02F3D040C2F1200291400843194651
:101F2000704700000FB4054B10B503A9044A02988E
:101F300000F018F810BC5DF814FB000057170008FB
:101F40006400002002E008C8121F08C1002AFAD16C
:101F500070477047002001E001C1121F002AFBD129
:101F6000704700002DE9FF4F8DB09B460F46044699
:101F7000002606E025280BD05A460F999047641C8E
:101F8000761C20780028F5D111B03046BDE8F08FDE
:101F90000025A8460122984900E0054314F8013FB6
:101FA000203B02FA03F00842F7D120782E2817D1FF
:101FB00014F8010F45F004052A280ED06FF02F0207
:101FC0002078A0F1300109290AD808EB880102EB3A
:101FD000410100EB0108641CF2E757F8048B641C14
:101FE00020786C280DD004DC4C2812D06A2811D13E
:101FF00004E074280DD07A280CD10AE045F40015CD
:1020000007E0617845F48015814202D1641C05F532
:102010008015641C2278692A45D008DC002AB3D0D8
:10202000582A69D0632A10D0642A08D13BE0702A6C
:1020300067D0732A13D0752A5CD0782A5CD01046FA
:102040005A460F999047761CD3E017F8040B8DF889
:10205000000000208DF80100E946012003E057F858
:10206000049B4FF0FF3069074FF0000501D40AE0F0
:102070006D1C45450DDA8542FADB19F8051000297B
:10208000F6D106E06D1C8542FCDB19F8051000292D
:10209000F8D12E4404E019F8010B5A460F999047E5
:1020A0006D1EF8D2A5E00A200021CDE90801C5F394
:1020B000025002280DD001CFC117031E71F1000399
:1020C0000DDA4FF0000CD0EB0C006CEB01012D236E
:1020D00008E0FF1D27F00707F7E80201EDE72B05F1
:1020E00004D52B238DF8283001233BE0EB0739D0B2
:1020F0002023F7E70A2000E010200021CDE90801A5
:1021000007E01020002145F00405CDE908014FF05B
:102110000808C5F3025002280FD001CF00214FF06C
:10212000000A2B071FD5702A0DD0DDE908C38CF0FB
:10213000100C5CEA030C0CD015E0FF1D27F007071C
:10214000F7E80201EBE740228DF828204FF0010A62
:102150000BE050EA010306D030238DF828308DF8CB
:10216000292002239A46582A04D024A20DF12009DE
:102170000B9209E026A2F9E7DDE90823FFF76EFEDE
:102180000B9B9B5C09F8013D50EA0102F4D1ADEBD9
:10219000090020300890680701D44FF00108089921
:1021A000884502DDA8EB010000E000208046002504
:1021B00006E00AA85A46405D0F9990476D1C761CB0
:1021C0005545F6DB04E030205A460F999047761CBF
:1021D000B8F10001A8F10108F5DC05E019F8010BE0
:1021E0005A460F999047761C0899481E0890002976
:1021F000F4DC641CC5E600000928010030313233EC
:102200003435363738396162636465660000000032
:10221000303132333435363738394142434445461C
:10222000000000000102030405060708090A0B0C60
:102230000D0E0F101112131415161718191A1B1C56
:102240001D1E1F2000000000FF0000000200000013
:1022500000000000FF000700010000000000000077
:10226000FF0100000801000067000000FF020000FD
:102270001000000000000000FF0400000800000043
:1022800000000000FF050000080000000000000042
:10229000FF0600000800000000000000FF0700002B
:1022A0000800000000000000FF0800000801000016
:1022B00000000000FF09000008000000000000000E
:1022C000FF0A00000800000000000000FF0B0000F3
:1022D0000800000000000000FF0C000010010000DA
:1022E00000000000FF0E00000801000000000000D8
:1022F000FF0F00000801000000000000FF100000B8
:102300000100000000000000FF10010001000000BB
:1023100000000000FF1002000100000000000000AB
:10232000FF1003000100000000000000FF1100008A
:102330000100000001000000FF1101000100000089
:1023400001000000FF12000001000000000000007A
:10235000FF1201000100000000000000FF12020057
:102360000100000000000000FF1203000100000057
:1023700000000000FF130000010100000000000049
:10238000FF1301000101000000000000FF14000025
:102390000101000000000000FF1401000101000025
:1023A00000000000FF140200010100000000000016
:1023B000FF1403000101000000000000FF140400EE
:1023C0000101000000000000FF15000001010000F5
:1023D00000000000FF1501000101000000000000E6
:1023E000FF1502000101000000000000FF150300BE
:1023F0000101000000000000FF15040001010000C1
:1024000000000000FF1505000101000000000000B1
:10241000FF1506000101000000000000FF15070085
:102420000101000000000000FF1600000101000093
:1024300000000000FF160100010100000000000084
:10244000FF1602000101000000000000FF1603005B
:102450000101000000000000FF160400010100005F
:1024600000000000FF160500010100000000000050
:10247000FF1606000101000000000000FF16070023
:102480000101000000000000FF1700000101000032
:1024900000000000FF170100010100000000000023
:1024A000FF1702000101000000000000FF170300F9
:1024B0000101000000000000FF17040001010000FE
:1024C00000000000FF1705000101000000000000EF
:1024D000FF1706000101000000000000FF170700C1
:1024E0000101000000000000FF18000001010000D1
:1024F00000000000FF1801000101000000000000C2
:10250000FF1802000101000000000000FF18030096
:102510000101000000000000FF180400010100009C
:1025200000000000FF18050001010000000000008D
:10253000FF1806000101000000000000FF1807005E
:102540000101000000000000FF190000010100006F
:1025500000000000FF190100010100000000000060
:10256000FF1902000101000000000000FF1A000036
:102570000101000000000000FF1A0100010100003D
:1025800000000000FF1A020001010000000000002E
:10259000FF1A03000101000000000000FF1A040000
:1025A0000101000000000000FF1A05000101000009
:1025B00000000000FF1A06000101000000000000FA
:1025C000FF1A07000101000000000000FF1B0000CF
:1025D0000400000000000000FF1C000004000000D8
:1025E00000000000FF1D00000500000000000000CA
:1025F000FF1E00000501000000000000FF1F00009A
:102600000500000000000000FF200000080100009D
:1026100000000000FF7D0000080100000000000035
:10262000FF7E00000801000001000000FF7F0000A5
:102630000100000001000000002100000100000076
:102640000000000000210100010000000100000066
:102650000021020001000000000000000021030032
:102660000100000000000000002104000100000043
:102670000000000000210500010000000000000033
:1026800000220000040000000700000000230000FA
:1026900008000000F0000000002400010D00000010
:1026A00080FEFFFF002600010D00000080FFFFFFFD
:1026B000002800010D00000080000000002A000139
:1026C0000D00000080010000002C00010D00000042
:1026D00080FEFFFF002E00010D00000080FFFFFFC5
:1026E000003000010D0000008000000000320001F9
:1026F0000D00000080010000003400010D0000000A
:1027000000000000003600010D0000000000000085
:102710000040000001000000000000000040010037
:102720000400000007000000004100000700000056
:102730000000000000420000070000000000000050
:1027400000430000070000000000000000440000FB
:102750000700000000000000004500000700000026
:10276000000000000046000007000000000000001C
:1027700000470000070000000000000000480000C3
:1027800007000000000000000049000001000000F8
:1027900000000000004901000100000001000000ED
:1027A0000049020001000000010000000049030090
:1027B00001000000010000000049040001000000C9
:1027C00001000000004905000100000001000000B8
:1027D000004906000100000001000000004A00005E
:1027E0000400000004000000004A0400040000008F
:1027F00004000000004B0000040000000400000082
:10280000004B04000400000004000000004C000025
:102810000400000004000000004C0400040000005C
:1028200004000000004D000004000000040000004F
:10283000004E00000400000004000000004E0400F0
:102840000300000005000000005100000C00000023
:1028500000000000005300000C000000FC0F00000E
:1028600000550000080000000700000000560000AE
:1028700008000000000000000057000008010000F0
:1028800000000000005800000801000000000000E7
:102890000059000001000000010000000059010083
:1028A0000100000001000000005A000001000000CB
:1028B00000000000005A01000300000000000000BA
:1028C000005B00000800000000000000005C000049
:1028D000080000001D000000005D00000600000070
:1028E00009000000005E000002000000020000007D
:1028F000005E02000200000001000000005E040013
:102900000200000000000000005F00000400000062
:1029100001000000005F040004000000020000004D
:1029200000600000100000000A00000000620000CB
:102930000100000001000000006201000100000031
:102940000100000000630000040000000800000017
:1029500000630400020000000200000000640000A8
:1029600007000000000000000065000008000000F3
:10297000FF000000006600000100000001000000F0
:102980000067000008000000000000000068000070
:1029900004000000080000000068040004000000BB
:1029A00007000000006901000100000001000000B4
:1029B000006902000100000001000000006903003E
:1029C0000100000001000000006A0000010000009A
:1029D00001000000006A0100010000000100000089
:1029E000006A02000100000000000000006A03000D
:1029F0000100000000000000006A04000101000066
:102A000000000000006A0500010100000000000055
:102A1000006A06000100000000000000006A0700D4
:102A20000100000000000000006B00000800000032
:102A300001000000006C0000080000002000000001
:102A4000006D00000800000064000000006E00003F
:102A50000800000064000000006F00000500000096
:102A600007000000007000000500000005000000E5
:102A70000071000005000000080000000072000066
:102A800006000000000000000073000006000000C7
:102A900000000000007400000600000000000000BC
:102AA0000074060001000000000000000075000036
:102AB00006000000000000000121000001000000ED
:102AC00000000000012101000100000000000000E2
:102AD00001210200010000000000000001220000AE
:102AE00010000000000000000124000004000000AD
:102AF00001000000012404000400000002000000A6
:102B00000125000003000000000000000127000173
:102B1000080000000000000001280001080000007B
:102B2000000000000129000001000000000000007A
:102B30000129010004000000000000000129050037
:102B40000100000000000000012906000100000053
:102B500000000000012A0000020000000000000048
:102B6000012A02000300000005000000012A050000
:102B70000200000000000000012A07000100000020
:102B800001000000012B0000010000000000000017
:102B9000012B01000100000000000000012B0200D9
:102BA0000300000000000000012C000008000000ED
:102BB00000000000012D00000100000001000000E5
:102BC000012E00000400000001000000012E04009E
:102BD0000400000002000000012F000010000000AF
:102BE0000A000000013100000100000001000000A7
:102BF000013101000100000001000000013200006D
:102C0000080000000A00000001330000030000007B
:102C10000300000001340000080000001D00000057
:102C2000013500000600000024000000013600000D
:102C30000C0000000000000001380000020000004D
:102C40000200000001380200020000000100000044
:102C500001380400020000000000000001390000FB
:102C60000800000000000000013A0000020000001F
:102C700000000000013A0200010000000000000016
:102C8000013A03000100000001000000013B0000C8
:102C90000400000008000000013B040002000000E6
:102CA00003000000013B06000100000000000000DE
:102CB000013C00000400000007000000013C04008B
:102CC0000100000001000000013D000008000000BC
:102CD000FF000000013E000008010000800000002D
:102CE000013F00000300000000000000013F03005E
:102CF0000300000000000000013F0600010000008A
:102D000000000000013F070001000000000000007B
:102D1000014000000300000000000000014003002B
:102D2000010000000000000001400400020000005B
:102D3000000000000140060001000000000000004B
:102D400001410000050000000000000001410700F3
:102D5000010000000000000001420000100000001F
:102D600000000000014400002000000000000000FE
:102D7000014800002000000000000000014C00009D
:102D80000800000000000000014D000001000000EC
:102D900001000000014D01000200000000000000E1
:102DA000014D03000100000001000000014D04007E
:102DB0000100000000000000014D050003000000BC
:102DC00000000000015000000800000000000000AA
:102DD0000151000008000000000000000152000046
:102DE0000100000001000000015300000A00000083
:102DF00000000000022100000800000000000000A8
:102E00000222000008010000000000000223000070
:102E10000800000000000000022500000100000082
:102E20000000000002260000080000000000000072
:102E30000227000008010000000000000228000036
:102E40000800000000000000022A0000010000004D
:102E500000000000022B0000010000000000000044
:102E6000022B01000100000000000000022B020004
:102E70000100000001000000022B0300010000001F
:102E800000000000022B0400010000000000000010
:102E9000022B05000100000000000000022B0600CC
:102EA0000100000000000000022C000002000000F1
:102EB00000000000022D00000400000002000000DD
:102EC000022D04000400000004000000022E000097
:102ED0000400000002000000022E040004000000B4
:102EE00004000000022F00000500000000000000A8
:102EF000022F05000100000000000000022F060064
:102F00000100000000000000022F07000100000087
:102F1000000000000230000010000000000000006F
:102F2000023300000801000000000000023400002D
:102F30000801000000000000023600000801000047
:102F4000000000000238000008010000000000003E
:102F5000023900000801000000000000023A0000F1
:102F60000801000000000000023B00000801000012
:102F700000000000023C000008010000000000000A
:102F8000023D00000801000000000000023E0000B9
:102F90000801000000000000023F000008010000DE
:102FA00000000000024000000801000000000000D6
:102FB0000241000008010000000000000242000081
:102FC0001001000000000000024400001001000099
:102FD0000000000002460000200100000000000088
:102FE000024A00000401000000000000024A040040
:102FF0000401000000000000024B0000040100007A
:1030000000000000024B040004010000000000006A
:10301000024C00000401000000000000024C04000B
:103020000401000000000000024D00000401000047
:1030300000000000024D0400040100000000000038
:10304000024E00000401000000000000024F0000DA
:103050000301000000000000024F03000301000014
:103060000000000002500000080000000000000006
:1030700002510000080000000000000002520000A1
:1030800001000000000000000252010001000000E9
:1030900000000000025202000100000000000000D9
:1030A0000253000001000000000000000254000074
:1030B00001000000000000000254010001000000B7
:1030C00000000000025402000200000000000000A6
:1030D0000254040003000000000000000254070036
:1030E000010100000000000002550000080000007F
:1030F0000000000002560000080000000000000070
:103100000257000008010000000000000258000003
:10311000080100000000000002590000010000004A
:103120000000000002590100010000000100000041
:10313000025A00010800000000000000025B0201CA
:103140000600000000000000025C0001100000000A
:1031500000000000025E000004010000000000000A
:10316000025F000005010000000000000260000096
:1031700005010000000000000261000005010000E0
:103180000000000001210000080000000000000015
:10319000B03100080000002068000000441F000853
:1031A000183200086800002078040000541F00084E
:1031B00000A24A0400000000000000000102030415
:1031C00006070809000000000102030401020304CD
:1031D00006070809020406080000000000000000BD
:1031E0000102030405060708090A0B0C0D0E0F1057
:1031F0001112131415161718191A1B1C1D1E1F2047
:10320000000000000000000000A00000000000001E
:08321000FFFFFFFF00000000BA
:0400000508000131BD
:00000001FF
